:10016100D2BBBCB6BFDAC1EEA3BAD0A1BDDC0D0AC9
:1001710000B6FEBCB6BFDAC1EEA3BA31A1A2B4FA91
:10018100C2EBB2E2CAD40D0A000932A1A2BFAAB7DA
:10019100A2B0E5D1E9D6A40D0A000933A1A2BFAAF4
:1001A100B5C60D0A000934A1A2B9D8B5C60D0A0019
:1001B100202035A1A2B1B1BEA90D0A000936A1A224
:1001C100C9CFBAA30D0A000937A1A2B9E3D6DD0D43
:1001D1000A00A1B0B4FAC2EBB2E2CAD4A1B1C3FC25
:1001E100C1EECAB6B1F0B3C9B9A60D0A00A1B0BF3C
:1001F100AAB7A2B0E5D1E9D6A4A1B1C3FCC1EECAA8
:10020100B6B1F0B3C9B9A60D0A00A1B0B1B1BEA98A
:10021100A1B1C3FCC1EECAB6B1F0B3C9B9A60D0A0A
:1002210000A1B0C9CFBAA3A1B1C3FCC1EECAB6B196
:10023100F0B3C9B9A60D0A00A1B0B9E3D6DDA1B1E9
:10024100C3FCC1EECAB6B1F0B3C9B9A60D0A00C765
:10025100EBD6D8D0C2CAB6B1F0B7A2BFDAC1EE0DA3
:020261000A0091
:0608E700011C00011B00D2
:10044800E4F50912088D1208A9120797120006E4AC
:10045800781CF67BFF7A0179611208447BFF7A01E8
:1004680079721208447BFF7A01798A1208447BFF6B
:100478007A01799B1208447BFF7A0179A612084415
:100488007BFF7A0179B11208447BFF7A0179BD12AA
:1004980008447BFF7A0179C8120844781CE6146086
:1004A800FA24F1601824DF60F224317020781C7679
:1004B80001120742EF70E4781C763180DE120908D9
:1004C800781EEFF61205FAE4781CF680CEE4781C64
:0304D800F680C8E3
:10088D00B2C21208CFB2C21208CFB2C21208CFB292
:0C089D00C21208CFB2C21208CFB2C222B1
:1008A9007580FF7590FF75A0FF75B0FF75C0FFC219
:0808B900C3D289D2A8D2AF22FC
:0A08DC0000007F057E49DEFEDFFC10
:0108E60022EF
:080869008F148E138D128C1107
:10087100E4F515F516F517F518781174FF1206FE53
:0B088100EC4D4E4F60051208DC80EECD
:01088C002249
:0C08CF007F117ED07D1BDDFEDEFCDFFA19
:0108DB0022FA
:030003000207D819
:1007D800C0E0C0F0C083C082C0D075D000C000C0E7
:1007E80001C002C003C004C005C006C00712030D43
:1007F800D007D006D005D004D003D002D001D00055
:0B080800D0D0D082D083D0F0D0E032FE
:1005FA00EF12071C062C01063402063C04064005CD
:10060A00065D06066107066508066909066D100695
:10061A007111067512064416064C1706542F00006F
:10062A00067A7BFF7A0179D3804C7BFF7A0179EED7
:10063A0080447F6180377F6280337BFF7A02790B47
:10064A0080347BFF7A027922802C7BFF7A02793907
:10065A001208447F6380167F6480127F65800E7F54
:10066A0066800A7F6780067F6880027F690208C108
:0A067A007BFF7A0279501208442237
:100026007869616F206A69650000000000000000C1
:10003600000000006B61692066612062616E2079B4
:10004600616E207A68656E67646169206D61206300
:100056006520736869000000000000006B6169207C
:1000660064656E67000000000000000000000000EC
:100076006775616E2064656E670000000000000011
:1000860000000000626569206A696E670000000072
:1000960000000000000000007368616E6720686160
:1000A6006900000000000000000000006775616E36
:1000B60067207A686F7500000000000000000000ED
:1000C60066616E20796500000000000000000000F7
:1000D600000000006461206B6169206469616E2024
:1000E6006A690000000000006775616E2062692081
:1000F6006469616E206A6900000000006A69612017
:100106007375000000000000000000000000000001
:100116006A69616E2073750000000000000000002F
:10012600000000006B6169206A69000000000000A1
:1001360000000000000000006775616E206A69001B
:1001460000000000000000000000000000020104A2
:0B0156000516172F06070809101112EC
:10079700D2B57F017E007D007C00120869C2B57F5B
:1007A700017E007D007C00120869D2B57F017E00C2
:1007B7007D007C00120869C2A17F017E007D007C5C
:1007C70000120869D2A17F017E007D007C0002082B
:0107D70069B8
:1003AC007F061208FD7D357F171208F27F0A7E004A
:1003BC007D007C001208697F061208FD7D037F8991
:1003CC001208F27F057E007D007C001208697D43D7
:1003DC007FCF1208F27F057E007D007C0012086939
:1003EC007D027FCB1208F27D0A7F111208F2E4FD28
:1003FC007F1E1208F27D3F7F191208F27D487F1B89
:10040C001208F27D1F7F1D1208F27F0A7E007D000C
:10041C007C001208697D047FCD1208F27F057E00F6
:10042C007D007C00120869E4FD7FB91208F27D4F53
:0C043C007FCF1208F27DFF7F6F0208F2F4
:100684001203ACE4FD7FBD1208F27D487F17120807
:10069400F27F0A7E007D007C001208697D807F3C29
:1006A4001208F27D077F3E1208F27DFF7F381208A0
:1006B400F27D077F3A1208F2E4FD7F401208F27DD2
:1006C400087F421208F2E4FD7F441208F27D087F9D
:0F06D400461208F27F017E007D007C000208695B
:10030D00E4F508C2A87F2B1208FD781DA607E4FDB1
:10031D007F291208F2E4FD7F021208F2781DE63003
:10032D00E4377FB21208FDEF6421702D7FBF1208F4
:10033D00FDEF643570237FBA1208FD8F087E00D360
:10034D00EF9400748094804010D3EF9404748094E3
:10035D00805006781C76108004781C7611E4FD7FA1
:10036D002B1208F2E4FD7F1C1208F2E4FD7F291226
:10037D0008F2E4FD7F021208F2E4FD7F2B1208F271
:10038D00E4FD7FBA1208F2E4FD7FBC1208F27D0194
:0E039D007F081208F2E4FD7F081208F2D2A8D1
:0103AB00222F
:10074200E4F50AF50BF50AC3E50A94057480948072
:10075200504012090D7F327E007D007C0012086934
:10076200120263EF700280117F0A7E007D007C001E
:100772001208691204DBEF70101207977F327E00B5
:100782007D007C001208698005750B018004050A52
:0407920080B5AF0B74
:010796002240
:10081300E4F510F50FC3E50F940A74809480501E1D
:100823007FB21208FDEF64217005751001800F7F00
:100833000A7E007D007C00120869050F80D7AF1087
:010843002292
:03090D000206845B
:1004DB00C2A87D307F351208F27D097F1C1208F20D
:1004EB007D207FBD1208F27D017F081208F27F018B
:1004FB007E007D007C00120869E4FD7F081208F283
:10050B007F017E007D007C00120869120813EF70DA
:10051B0002FF227D0B7F1C1208F27DFF7FB21208B7
:10052B00F27F017E007D007C001208697D067F371B
:10053B001208F27F017E007D007C001208697D06A7
:10054B007F371208F27F057E007D007C0012086960
:10055B007D107F291208F2E4FD7FBD1208F2D2A8AC
:03056B007F0122EB
:10026300750D01E4F50CC3E50C940F748094804084
:100273000302030A120813EF7005F50D02030AE5E2
:100283000C90015293FD7FC11208F2E4FD7FC3126B
:1002930008F27D047F081208F27F017E007D007C56
:1002A30000120869E4FD7F081208F27F017E007DD9
:1002B300007C00120869E4F50EC3E50E9414748003
:1002C3009480502975F014E50CA42426F582E5F0FA
:1002D3003400F583E582250EF582E43583F583E466
:1002E30093FD60097F051208F2050E80CCAD0E7FE9
:1002F300B91208F27DFF7FB21208F27D047F371234
:0903030008F2050C020269AF0DBD
:01030C0022CE
:050908007FC50208FD9F
:0B08F200908100EFF0908000EDF022FC
:0B08FD00908100EFF0908000E0FF22EF
:0408ED00021900FAF2
:1000060053877F759850438E40538EFE53890F4316
:0D0016008920AF1A8F8B8F8DC2ABD28E2246
:03002300020910BF
:0109100032B4
:0E08C100C2ACC2998F993099FDC299D2AC2277
:100844008B0A8A0B890CAB0AAA0BA90C1206E3606B
:1008540013050CE50C7002050B14F91206E3FF12E4
:0508640008C180E22242
:0300000002056E88
:0C056E00787FE4F6D8FD75811E0205B50B
:1006E300BB010689828A83E0225002E722BBFE0215
:0906F300E32289828A83E4932248
:1006FC007401FF3395E0FEFDFC080808E6CF2FF6E9
:10070C0018E6CE3EF618E6CD3DF618E6CC3CF622C1
:10071C00D083D082F8E4937012740193700DA3A36C
:10072C0093F8740193F5828883E473740293686080
:06073C00EFA3A3A380DF80
:10057A00020448E493A3F8E493A34003F68001F24B
:10058A0008DFF48029E493A3F85407240CC8C33382
:10059A00C4540F4420C8834004F456800146F6DF51
:1005AA00E4800B01020408102040809008E7E47EF2
:1005BA00019360BCA3FF543F30E509541FFEE49346
:1005CA00A360010ECF54C025E060A840B8E493A30D
:1005DA00FAE493A3F8E493A3C8C582C8CAC583CA38
:1005EA00F0A3C8C582C8CAC583CADFE9DEE780BEF0
:0108F1000006
:00000001FF
